{
  "contractName": "Migrations",
  "abi": [
    {
      "inputs": [],
      "name": "owner",
      "outputs": [
        {
          "internalType": "address",
          "name": "",
          "type": "address"
        }
      ],
      "stateMutability": "view",
      "type": "function",
      "constant": true
    },
    {
      "inputs": [
        {
          "internalType": "uint256",
          "name": "completed",
          "type": "uint256"
        }
      ],
      "name": "setCompleted",
      "outputs": [],
      "stateMutability": "nonpayable",
      "type": "function"
    }
  ],
  "bytecode": "0x6080604052600080546001600160a01b0319163317905534801561002257600080fd5b50610142806100326000396000f3fe608060405234801561001057600080fd5b50600436106100365760003560e01c80638da5cb5b1461003b578063fdacd5761461005f575b600080fd5b61004361007e565b604080516001600160a01b039092168252519081900360200190f35b61007c6004803603602081101561007557600080fd5b503561008d565b005b6000546001600160a01b031681565b6000546001600160a01b031633146100d65760405162461bcd60e51b81526004018080602001828103825260338152602001806100da6033913960400191505060405180910390fd5b5056fe546869732066756e6374696f6e206973207265737472696374656420746f2074686520636f6e74726163742773206f776e6572a2646970667358221220f77eba49c0022196b64d12bd2ed339a2b8573017c362553c422ff747c1d3f51364736f6c63430006020033",
  "source": "// SPDX-License-Identifier: MIT\r\npragma solidity ^0.6.2;\r\n\r\ncontract Migrations {\r\n    address public owner = msg.sender;\r\n\r\n    modifier restricted() {\r\n        require(msg.sender == owner, \"This function is restricted to the contract's owner\");\r\n        _;\r\n    }\r\n\r\n    function setCompleted(uint completed) public restricted {}\r\n}\r\n",
  "sourcePath": "D:\\harveen\\Harveen\\E-com site - Blockchain\\contracts\\Migrations.sol",
  "compiler": {
    "name": "solc",
    "version": "0.6.2+commit.bacdbe57.Emscripten.clang"
  },
  "schemaVersion": "3.4.16",
  "updatedAt": "2025-03-31T07:36:41.849Z",
  "networkType": "ethereum",
  "devdoc": {
    "methods": {}
  },
  "userdoc": {
    "methods": {}
  }
}