{
  "contractName": "PaymentProcessor",
  "abi": [
    {
      "inputs": [
        {
          "internalType": "address",
          "name": "adminAddress",
          "type": "address"
        },
        {
          "internalType": "address",
          "name": "daiAddress",
          "type": "address"
        }
      ],
      "stateMutability": "nonpayable",
      "type": "constructor"
    },
    {
      "anonymous": false,
      "inputs": [
        {
          "indexed": false,
          "internalType": "address",
          "name": "payer",
          "type": "address"
        },
        {
          "indexed": false,
          "internalType": "uint256",
          "name": "amount",
          "type": "uint256"
        },
        {
          "indexed": false,
          "internalType": "uint256",
          "name": "paymentId",
          "type": "uint256"
        },
        {
          "indexed": false,
          "internalType": "uint256",
          "name": "date",
          "type": "uint256"
        }
      ],
      "name": "PaymentDone",
      "type": "event"
    },
    {
      "inputs": [],
      "name": "admin",
      "outputs": [
        {
          "internalType": "address",
          "name": "",
          "type": "address"
        }
      ],
      "stateMutability": "view",
      "type": "function",
      "constant": true
    },
    {
      "inputs": [],
      "name": "dai",
      "outputs": [
        {
          "internalType": "contract IERC20",
          "name": "",
          "type": "address"
        }
      ],
      "stateMutability": "view",
      "type": "function",
      "constant": true
    },
    {
      "inputs": [
        {
          "internalType": "uint256",
          "name": "amount",
          "type": "uint256"
        },
        {
          "internalType": "uint256",
          "name": "paymentId",
          "type": "uint256"
        }
      ],
      "name": "pay",
      "outputs": [],
      "stateMutability": "nonpayable",
      "type": "function"
    }
  ],
  "bytecode": "0x608060405234801561001057600080fd5b5060405161023e38038061023e8339818101604052604081101561003357600080fd5b508051602090910151600080546001600160a01b039384166001600160a01b031991821617909155600180549390921692169190911790556101c48061007a6000396000f3fe608060405234801561001057600080fd5b50600436106100415760003560e01c8063ef48eee614610046578063f4b9fa751461006b578063f851a4401461008f575b600080fd5b6100696004803603604081101561005c57600080fd5b5080359060200135610097565b005b610073610170565b604080516001600160a01b039092168252519081900360200190f35b61007361017f565b60015460008054604080516323b872dd60e01b81523360048201526001600160a01b03928316602482015260448101879052905191909316926323b872dd9260648083019360209390929083900390910190829087803b1580156100fa57600080fd5b505af115801561010e573d6000803e3d6000fd5b505050506040513d602081101561012457600080fd5b5050604080513381526020810184905280820183905242606082015290517f78eaebe37a28490ff43ed0e95bdc47de1587156ac0069b652e1d2d9f42464e989181900360800190a15050565b6001546001600160a01b031681565b6000546001600160a01b03168156fea264697066735822122095703db9934f8cea57f381a75852aea989130b700ff2e04b1ac2bb3cf52e7b9d64736f6c63430006020033",
  "source": "pragma solidity ^0.6.2;\r\n\r\nimport \"@openzeppelin/contracts/token/ERC20/ERC20.sol\";\r\n\r\n\r\ncontract PaymentProcessor{\r\n    address public admin;\r\n    IERC20 public dai;\r\n\r\n    event PaymentDone(\r\n        address payer,\r\n        uint amount,\r\n        uint paymentId,\r\n        uint date\r\n    );\r\n\r\n    constructor(address adminAddress, address daiAddress) public{\r\n        admin=adminAddress;\r\n        dai=IERC20(daiAddress);\r\n    }\r\n\r\n    function pay(uint amount, uint paymentId) external{\r\n        dai.transferFrom(msg.sender, admin, amount);\r\n        emit PaymentDone(msg.sender, amount, paymentId, block.timestamp);\r\n    }\r\n}\r\n",
  "sourcePath": "D:\\harveen\\Harveen\\E-com site - Blockchain\\contracts\\paymentProcessor.sol",
  "compiler": {
    "name": "solc",
    "version": "0.6.2+commit.bacdbe57.Emscripten.clang"
  },
  "schemaVersion": "3.4.16",
  "updatedAt": "2025-03-31T07:36:41.847Z",
  "networkType": "ethereum",
  "devdoc": {
    "methods": {}
  },
  "userdoc": {
    "methods": {}
  }
}