{
  "contractName": "PaymentWithLoyalty",
  "abi": [
    {
      "inputs": [
        {
          "internalType": "address",
          "name": "_loyaltyToken",
          "type": "address"
        }
      ],
      "stateMutability": "nonpayable",
      "type": "constructor"
    },
    {
      "anonymous": false,
      "inputs": [
        {
          "indexed": true,
          "internalType": "address",
          "name": "user",
          "type": "address"
        },
        {
          "indexed": false,
          "internalType": "uint256",
          "name": "amount",
          "type": "uint256"
        }
      ],
      "name": "LoyaltyPointsEarned",
      "type": "event"
    },
    {
      "anonymous": false,
      "inputs": [
        {
          "indexed": true,
          "internalType": "address",
          "name": "payer",
          "type": "address"
        },
        {
          "indexed": false,
          "internalType": "uint256",
          "name": "amountPaid",
          "type": "uint256"
        },
        {
          "indexed": false,
          "internalType": "uint256",
          "name": "pointsUsed",
          "type": "uint256"
        },
        {
          "indexed": false,
          "internalType": "uint256",
          "name": "pointsEarned",
          "type": "uint256"
        }
      ],
      "name": "Payed",
      "type": "event"
    },
    {
      "anonymous": false,
      "inputs": [
        {
          "indexed": true,
          "internalType": "address",
          "name": "by",
          "type": "address"
        },
        {
          "indexed": false,
          "internalType": "uint256",
          "name": "amount",
          "type": "uint256"
        }
      ],
      "name": "Withdrawn",
      "type": "event"
    },
    {
      "inputs": [],
      "name": "POINTS_EARNING_RATE_WEI",
      "outputs": [
        {
          "internalType": "uint256",
          "name": "",
          "type": "uint256"
        }
      ],
      "stateMutability": "view",
      "type": "function",
      "constant": true
    },
    {
      "inputs": [],
      "name": "POINTS_VALUE_WEI",
      "outputs": [
        {
          "internalType": "uint256",
          "name": "",
          "type": "uint256"
        }
      ],
      "stateMutability": "view",
      "type": "function",
      "constant": true
    },
    {
      "inputs": [],
      "name": "loyaltyToken",
      "outputs": [
        {
          "internalType": "contract ILoyaltyToken",
          "name": "",
          "type": "address"
        }
      ],
      "stateMutability": "view",
      "type": "function",
      "constant": true
    },
    {
      "inputs": [],
      "name": "owner",
      "outputs": [
        {
          "internalType": "address",
          "name": "",
          "type": "address"
        }
      ],
      "stateMutability": "view",
      "type": "function",
      "constant": true
    },
    {
      "inputs": [],
      "name": "totalPayed",
      "outputs": [
        {
          "internalType": "uint256",
          "name": "",
          "type": "uint256"
        }
      ],
      "stateMutability": "view",
      "type": "function",
      "constant": true
    },
    {
      "inputs": [],
      "name": "payNormal",
      "outputs": [],
      "stateMutability": "payable",
      "type": "function",
      "payable": true
    },
    {
      "inputs": [
        {
          "internalType": "uint256",
          "name": "usePoints",
          "type": "uint256"
        }
      ],
      "name": "payWithPoints",
      "outputs": [],
      "stateMutability": "payable",
      "type": "function",
      "payable": true
    },
    {
      "inputs": [],
      "name": "withdraw",
      "outputs": [],
      "stateMutability": "nonpayable",
      "type": "function"
    },
    {
      "inputs": [],
      "name": "getBalance",
      "outputs": [
        {
          "internalType": "uint256",
          "name": "",
          "type": "uint256"
        }
      ],
      "stateMutability": "view",
      "type": "function",
      "constant": true
    }
  ],
  "bytecode": "0x608060405234801561001057600080fd5b50604051610f0d380380610f0d8339818101604052810190610032919061011c565b336000806101000a81548173ffffffffffffffffffffffffffffffffffffffff021916908373ffffffffffffffffffffffffffffffffffffffff16021790555080600260006101000a81548173ffffffffffffffffffffffffffffffffffffffff021916908373ffffffffffffffffffffffffffffffffffffffff16021790555050610149565b600080fd5b600073ffffffffffffffffffffffffffffffffffffffff82169050919050565b60006100e9826100be565b9050919050565b6100f9816100de565b811461010457600080fd5b50565b600081519050610116816100f0565b92915050565b600060208284031215610132576101316100b9565b5b600061014084828501610107565b91505092915050565b610db5806101586000396000f3fe6080604052600436106100855760003560e01c80633a250fa5116100595780633a250fa5146101275780633ccfd60b14610131578063770aa84d146101485780638da5cb5b14610173578063bc5791031461019e57610085565b806290506c1461008a5780630c83844c146100b557806312065fe0146100d15780633531b5e5146100fc575b600080fd5b34801561009657600080fd5b5061009f6101c9565b6040516100ac9190610898565b60405180910390f35b6100cf60048036038101906100ca91906108e4565b6101d3565b005b3480156100dd57600080fd5b506100e66104df565b6040516100f39190610898565b60405180910390f35b34801561010857600080fd5b506101116104e7565b60405161011e9190610898565b60405180910390f35b61012f6104f2565b005b34801561013d57600080fd5b506101466106a1565b005b34801561015457600080fd5b5061015d61082f565b60405161016a9190610990565b60405180910390f35b34801561017f57600080fd5b50610188610855565b60405161019591906109cc565b60405180910390f35b3480156101aa57600080fd5b506101b3610879565b6040516101c09190610898565b60405180910390f35b654c65c629400081565b60003411806101e25750600081115b610221576040517f08c379a000000000000000000000000000000000000000000000000000000000815260040161021890610a44565b60405180910390fd5b6000600260009054906101000a900473ffffffffffffffffffffffffffffffffffffffff1673ffffffffffffffffffffffffffffffffffffffff166370a08231336040518263ffffffff1660e01b815260040161027e91906109cc565b602060405180830381865afa15801561029b573d6000803e3d6000fd5b505050506040513d601f19601f820116820180604052508101906102bf9190610a79565b90506000829050818111156102d2578190505b600081111561036b57600260009054906101000a900473ffffffffffffffffffffffffffffffffffffffff1673ffffffffffffffffffffffffffffffffffffffff16639dc29fac33836040518363ffffffff1660e01b8152600401610338929190610aa6565b600060405180830381600087803b15801561035257600080fd5b505af1158015610366573d6000803e3d6000fd5b505050505b600034905080600160008282546103829190610afe565b9250508190555060006601dd7c1681d0008261039e9190610b61565b9050600081111561048757600260009054906101000a900473ffffffffffffffffffffffffffffffffffffffff1673ffffffffffffffffffffffffffffffffffffffff166340c10f1933836040518363ffffffff1660e01b8152600401610406929190610aa6565b600060405180830381600087803b15801561042057600080fd5b505af1158015610434573d6000803e3d6000fd5b505050503373ffffffffffffffffffffffffffffffffffffffff167f175753914ef8c601477ea9da8b478482e8f41ba7c52ad0d1ae19da5e207fa00b8260405161047e9190610898565b60405180910390a25b3373ffffffffffffffffffffffffffffffffffffffff167e92107528e425098e5563cf2088d5e81401f7665a9becd4f7eba3e33000772e8385846040516104d093929190610b92565b60405180910390a25050505050565b600047905090565b6601dd7c1681d00081565b60003411610535576040517f08c379a000000000000000000000000000000000000000000000000000000000815260040161052c90610c15565b60405180910390fd5b34600160008282546105479190610afe565b9250508190555060006601dd7c1681d000346105639190610b61565b9050600081111561064c57600260009054906101000a900473ffffffffffffffffffffffffffffffffffffffff1673ffffffffffffffffffffffffffffffffffffffff166340c10f1933836040518363ffffffff1660e01b81526004016105cb929190610aa6565b600060405180830381600087803b1580156105e557600080fd5b505af11580156105f9573d6000803e3d6000fd5b505050503373ffffffffffffffffffffffffffffffffffffffff167f175753914ef8c601477ea9da8b478482e8f41ba7c52ad0d1ae19da5e207fa00b826040516106439190610898565b60405180910390a25b3373ffffffffffffffffffffffffffffffffffffffff167e92107528e425098e5563cf2088d5e81401f7665a9becd4f7eba3e33000772e3460008460405161069693929190610c70565b60405180910390a250565b60008054906101000a900473ffffffffffffffffffffffffffffffffffffffff1673ffffffffffffffffffffffffffffffffffffffff163373ffffffffffffffffffffffffffffffffffffffff161461072f576040517f08c379a000000000000000000000000000000000000000000000000000000000815260040161072690610cf3565b60405180910390fd5b600047905060008111610777576040517f08c379a000000000000000000000000000000000000000000000000000000000815260040161076e90610d5f565b60405180910390fd5b60008054906101000a900473ffffffffffffffffffffffffffffffffffffffff1673ffffffffffffffffffffffffffffffffffffffff166108fc829081150290604051600060405180830381858888f193505050501580156107dd573d6000803e3d6000fd5b503373ffffffffffffffffffffffffffffffffffffffff167f7084f5476618d8e60b11ef0d7d3f06914655adb8793e28ff7f018d4c76d505d5826040516108249190610898565b60405180910390a250565b600260009054906101000a900473ffffffffffffffffffffffffffffffffffffffff1681565b60008054906101000a900473ffffffffffffffffffffffffffffffffffffffff1681565b60015481565b6000819050919050565b6108928161087f565b82525050565b60006020820190506108ad6000830184610889565b92915050565b600080fd5b6108c18161087f565b81146108cc57600080fd5b50565b6000813590506108de816108b8565b92915050565b6000602082840312156108fa576108f96108b3565b5b6000610908848285016108cf565b91505092915050565b600073ffffffffffffffffffffffffffffffffffffffff82169050919050565b6000819050919050565b600061095661095161094c84610911565b610931565b610911565b9050919050565b60006109688261093b565b9050919050565b600061097a8261095d565b9050919050565b61098a8161096f565b82525050565b60006020820190506109a56000830184610981565b92915050565b60006109b682610911565b9050919050565b6109c6816109ab565b82525050565b60006020820190506109e160008301846109bd565b92915050565b600082825260208201905092915050565b7f4e6f204554482073656e74206f7220706f696e74732075736564000000000000600082015250565b6000610a2e601a836109e7565b9150610a39826109f8565b602082019050919050565b60006020820190508181036000830152610a5d81610a21565b9050919050565b600081519050610a73816108b8565b92915050565b600060208284031215610a8f57610a8e6108b3565b5b6000610a9d84828501610a64565b91505092915050565b6000604082019050610abb60008301856109bd565b610ac86020830184610889565b9392505050565b7f4e487b7100000000000000000000000000000000000000000000000000000000600052601160045260246000fd5b6000610b098261087f565b9150610b148361087f565b9250828201905080821115610b2c57610b2b610acf565b5b92915050565b7f4e487b7100000000000000000000000000000000000000000000000000000000600052601260045260246000fd5b6000610b6c8261087f565b9150610b778361087f565b925082610b8757610b86610b32565b5b828204905092915050565b6000606082019050610ba76000830186610889565b610bb46020830185610889565b610bc16040830184610889565b949350505050565b7f4e6f204554482073656e74000000000000000000000000000000000000000000600082015250565b6000610bff600b836109e7565b9150610c0a82610bc9565b602082019050919050565b60006020820190508181036000830152610c2e81610bf2565b9050919050565b6000819050919050565b6000610c5a610c55610c5084610c35565b610931565b61087f565b9050919050565b610c6a81610c3f565b82525050565b6000606082019050610c856000830186610889565b610c926020830185610c61565b610c9f6040830184610889565b949350505050565b7f4e6f7420746865206f776e657200000000000000000000000000000000000000600082015250565b6000610cdd600d836109e7565b9150610ce882610ca7565b602082019050919050565b60006020820190508181036000830152610d0c81610cd0565b9050919050565b7f4e6f2062616c616e636500000000000000000000000000000000000000000000600082015250565b6000610d49600a836109e7565b9150610d5482610d13565b602082019050919050565b60006020820190508181036000830152610d7881610d3c565b905091905056fea2646970667358221220f3d36e828ea1f334107ed7c9e340e968788d10d4d50a1d42045b8f4ed134519864736f6c63430008130033",
  "immutableReferences": {},
  "source": "// SPDX-License-Identifier: MIT\r\npragma solidity ^0.8.19;\r\n\r\ninterface ILoyaltyToken {\r\n    function mint(address to, uint256 amount) external;\r\n    function burn(address from, uint256 amount) external;\r\n    function balanceOf(address account) external view returns (uint256);\r\n}\r\n\r\ncontract PaymentWithLoyalty {\r\n    address public owner;\r\n    uint256 public totalPayed;\r\n    ILoyaltyToken public loyaltyToken;\r\n    \r\n    // Value of one loyalty point in Wei (1 point = 20 INR = 0.000084 ETH)\r\n    uint256 public constant POINTS_VALUE_WEI = 0.000084 ether;\r\n    \r\n    // Points earning rate (1 point per 125 INR = 0.000525 ETH)\r\n    uint256 public constant POINTS_EARNING_RATE_WEI = 0.000525 ether;\r\n\r\n    constructor(address _loyaltyToken) {\r\n        owner = msg.sender;\r\n        loyaltyToken = ILoyaltyToken(_loyaltyToken);\r\n    }\r\n\r\n    event Payed(address indexed payer, uint256 amountPaid, uint256 pointsUsed, uint256 pointsEarned);\r\n    event Withdrawn(address indexed by, uint256 amount);\r\n    event LoyaltyPointsEarned(address indexed user, uint256 amount);\r\n\r\n    // Normal payment without using loyalty points\r\n    function payNormal() external payable {\r\n        require(msg.value > 0, \"No ETH sent\");\r\n        \r\n        // Add the payment to total amount\r\n        totalPayed += msg.value;\r\n        \r\n        // Issue new loyalty points (1 point per 0.000525 ETH spent, which is approximately 125 INR)\r\n        uint256 newPoints = msg.value / POINTS_EARNING_RATE_WEI;\r\n        \r\n        if (newPoints > 0) {\r\n            loyaltyToken.mint(msg.sender, newPoints);\r\n            emit LoyaltyPointsEarned(msg.sender, newPoints);\r\n        }\r\n        \r\n        emit Payed(msg.sender, msg.value, 0, newPoints);\r\n    }\r\n\r\n    // Payment using loyalty points\r\n    function payWithPoints(uint256 usePoints) external payable {\r\n        require(msg.value > 0 || usePoints > 0, \"No ETH sent or points used\");\r\n\r\n        uint256 balance = loyaltyToken.balanceOf(msg.sender);\r\n        uint256 pointsToUse = usePoints;\r\n        \r\n        // Make sure we don't try to use more points than the user has\r\n        if (pointsToUse > balance) {\r\n            pointsToUse = balance;\r\n        }\r\n        \r\n        // If points are being used, burn them\r\n        if (pointsToUse > 0) {\r\n            loyaltyToken.burn(msg.sender, pointsToUse);\r\n        }\r\n        \r\n        // Calculate total payment amount (msg.value represents the amount AFTER discount was applied in the frontend)\r\n        uint256 totalPaymentAmount = msg.value;\r\n        \r\n        // Add the payment to total amount\r\n        totalPayed += totalPaymentAmount;\r\n        \r\n        // Issue new loyalty points (1 point per 0.000525 ETH spent, which is approximately 125 INR)\r\n        uint256 newPoints = totalPaymentAmount / POINTS_EARNING_RATE_WEI;\r\n        \r\n        if (newPoints > 0) {\r\n            loyaltyToken.mint(msg.sender, newPoints);\r\n            emit LoyaltyPointsEarned(msg.sender, newPoints);\r\n        }\r\n        \r\n        emit Payed(msg.sender, totalPaymentAmount, pointsToUse, newPoints);\r\n    }\r\n\r\n    function withdraw() external {\r\n        require(msg.sender == owner, \"Not the owner\");\r\n        uint256 amount = address(this).balance;\r\n        require(amount > 0, \"No balance\");\r\n        payable(owner).transfer(amount);\r\n        emit Withdrawn(msg.sender, amount);\r\n    }\r\n\r\n    function getBalance() external view returns (uint256) {\r\n        return address(this).balance;\r\n    }\r\n}",
  "sourcePath": "D:\\harveen\\Harveen\\E-com site - Blockchain\\contracts\\PaymentWithLoyalty.sol",
  "compiler": {
    "name": "solc",
    "version": "0.8.19+commit.7dd6d404.Emscripten.clang"
  },
  "schemaVersion": "3.4.16",
  "updatedAt": "2025-04-21T07:02:31.217Z",
  "networkType": "ethereum",
  "devdoc": {
    "kind": "dev",
    "methods": {},
    "version": 1
  },
  "userdoc": {
    "kind": "user",
    "methods": {},
    "version": 1
  }
}